{
  "_format": "hh-sol-artifact-1",
  "contractName": "CustomGlyphs",
  "sourceName": "contracts/CustomGlyphs.sol",
  "abi": [
    {
      "inputs": [
        {
          "internalType": "uint64[]",
          "name": "_glyphs",
          "type": "uint64[]"
        },
        {
          "internalType": "string[]",
          "name": "_glyphNames",
          "type": "string[]"
        },
        {
          "internalType": "string",
          "name": "_category",
          "type": "string"
        }
      ],
      "stateMutability": "nonpayable",
      "type": "constructor"
    },
    {
      "anonymous": false,
      "inputs": [
        {
          "indexed": false,
          "internalType": "uint256",
          "name": "glyphCount",
          "type": "uint256"
        },
        {
          "indexed": false,
          "internalType": "string",
          "name": "category",
          "type": "string"
        }
      ],
      "name": "GlyphsInitialized",
      "type": "event"
    },
    {
      "inputs": [],
      "name": "category",
      "outputs": [
        {
          "internalType": "string",
          "name": "",
          "type": "string"
        }
      ],
      "stateMutability": "view",
      "type": "function"
    },
    {
      "inputs": [],
      "name": "getAllGlyphs",
      "outputs": [
        {
          "internalType": "uint64[]",
          "name": "",
          "type": "uint64[]"
        }
      ],
      "stateMutability": "view",
      "type": "function"
    },
    {
      "inputs": [
        {
          "internalType": "uint256",
          "name": "glyphId",
          "type": "uint256"
        }
      ],
      "name": "getGlyphBitmap",
      "outputs": [
        {
          "internalType": "uint64",
          "name": "",
          "type": "uint64"
        }
      ],
      "stateMutability": "view",
      "type": "function"
    },
    {
      "inputs": [],
      "name": "glyphCount",
      "outputs": [
        {
          "internalType": "uint256",
          "name": "",
          "type": "uint256"
        }
      ],
      "stateMutability": "view",
      "type": "function"
    },
    {
      "inputs": [
        {
          "internalType": "uint256",
          "name": "",
          "type": "uint256"
        }
      ],
      "name": "glyphNames",
      "outputs": [
        {
          "internalType": "string",
          "name": "",
          "type": "string"
        }
      ],
      "stateMutability": "view",
      "type": "function"
    },
    {
      "inputs": [
        {
          "internalType": "uint256",
          "name": "",
          "type": "uint256"
        }
      ],
      "name": "glyphs",
      "outputs": [
        {
          "internalType": "uint64",
          "name": "",
          "type": "uint64"
        }
      ],
      "stateMutability": "view",
      "type": "function"
    }
  ],
  "bytecode": "0x604060808152346200067f5762000d6690813803806200001f81620006c7565b9384398201916060818403126200067f5780516001600160401b03908181116200067f578201601f918583830112156200067f578151956020946200006e6200006889620006ed565b620006c7565b9386858a81520187819a60051b830101918483116200067f578801905b828210620006ad57505050858101518381116200067f578101918086840112156200067f578251620000c16200006882620006ed565b93888086848152019260051b820101918383116200067f57898201905b838210620006845750505050878201518481116200067f576200010292016200072a565b968351801515908162000672575b50156200062e578351918383116200061857680100000000000000009283811162000618576000928354828555808310620005c5575b50908380528884208160021c91855b838110620005865750600319811690038062000543575b505050508051156000146200053c575083516200018d6200006882620006ed565b908082526200019f601f1991620006ed565b0187835b8281106200052b57505050915b8251908111620005175786600193845483865580841062000493575b500183835287832083915b83831062000365575050505087519283116200035157620001fa600254620007b3565b85811162000315575b5085918584116001146200029b57508260008051602062000d4683398151915297989360609695936200024b93916200028f575b508160011b916000199060031b1c19161790565b6002555b5191620002768751958694855288818601528351938491828b880152878701910162000705565b01601f19168101030190a1516105559081620007f18239f35b90508401513862000237565b9291601f19831660028352878320925b818110620002ff5750918391606097969460008051602062000d468339815191529a9b969410620002e5575b5050811b016002556200024f565b85015160001960f88460031b161c191690553880620002d7565b8a830151845592850192918801918801620002ab565b6200034090600283528783208780870160051c8201928a881062000347575b0160051c019062000781565b3862000203565b9250819262000334565b634e487b7160e01b81526041600452602490fd5b80519081518881116200047f5787918c918c620003838754620007b3565b8181116200044f575b505082948d8211600114620003dd5790808596620003c1938c92620003d1575b50508160011b916000199060031b1c19161790565b85555b01920192019190620001d7565b015190503880620003ac565b868a52838a209095601f1983168b5b8181106200042c575090869784889594931062000412575b505050811b018555620003c4565b015160001960f88460031b161c1916905538808062000404565b9497939686929691938786015181550195019301928f94918c96939794620003ec565b878b52848b20620004779284810160051c82019287861062000347570160051c019062000781565b8c386200038c565b634e487b7160e01b87526041600452602487fd5b858552858484872092830192015b828110620004b1575050620001cc565b909192935085620004c38254620007b3565b80620004d8575b50500190858a9392620004a1565b8c8c808311600114620004f35750505081555b8538620004ca565b6200050d918585528420920160051c820185830162000781565b81835555620004eb565b634e487b7160e01b82526041600452602482fd5b6060828286010152018890620001a3565b91620001b0565b928593865b8c8282106200056157505050500155388080806200016c565b6200057b84978c60019495965116908560031b906200079a565b960192910162000548565b86875b8d60048210620005a25750508382015560010162000155565b620005bb88938d6001949a5116908a60031b906200079a565b9201960162000589565b620005f8908580528a8620600380860160021c8201928d601888841b169081620005ff575b50500160021c019062000781565b3862000146565b6000198087019283549203851b1c169055388e620005ea565b634e487b7160e01b600052604160045260246000fd5b865162461bcd60e51b815260048101879052601960248201527f476c79706820636f756e74206d75737420626520312d313237000000000000006044820152606490fd5b607f915011153862000110565b600080fd5b81518881116200067f578b91620006a1878480948801016200072a565b815201910190620000de565b815186811681036200067f5781529088019088016200008b565b6040519190601f01601f191682016001600160401b038111838210176200061857604052565b6001600160401b038111620006185760051b60200190565b60005b838110620007195750506000910152565b818101518382015260200162000708565b81601f820112156200067f5780516001600160401b03811162000618576200075c601f8201601f1916602001620006c7565b92818452602082840101116200067f576200077e916020808501910162000705565b90565b8181106200078d575050565b6000815560010162000781565b9060031b9160018060401b03809116831b921b19161790565b90600182811c92168015620007e5575b6020831014620007cf57565b634e487b7160e01b600052602260045260246000fd5b91607f1691620007c356fe608060408181526004908136101561001657600080fd5b600092833560e01c908163120f947f1461030c5750806362a68edd146102a6578063887296c314610263578063c638268214610246578063e55750c81461014e5763ef430aa61461006657600080fd5b3461014a578260031936011261014a5780519183600254906001908260011c92600181168015610140575b602095868610821461012d575084885290811561010b57506001146100d0575b6100cc86866100c2828b038361049d565b51918291826104d6565b0390f35b929550600283528583205b8284106100f857505050826100cc946100c29282010194386100b1565b80548685018801529286019281016100db565b60ff191687860152505050151560051b83010192506100c2826100cc386100b1565b634e487b7160e01b845260229052602483fd5b93607f1693610091565b8280fd5b508290346102425760208060031936011261014a5783359360019460015481101561023e57600185528285200194835194809680548060011c9460018216908115610234575b878710821461022157508589529081156101fd57506001146101c2575b6100cc87876100c2828c038361049d565b9080949750528583205b8284106101ea57505050826100cc946100c2928201019486806101b1565b80548685018801529286019281016101cc565b60ff19168887015250505050151560051b83010192506100c2826100cc86806101b1565b634e487b7160e01b855260229052602484fd5b95607f1695610194565b8480fd5b5080fd5b838234610242578160031936011261024257602091549051908152f35b50903461014a57602036600319011261014a57359180548310156102a3575061028d602092610467565b905491519160018060401b039160031b1c168152f35b80fd5b5091903461024257602036600319011261024257803591548210156102d15760208361028d84610467565b606490602084519162461bcd60e51b83528201526015602482015274476c797068204944206f7574206f662072616e676560581b6044820152fd5b849150833461014a578260031936011261014a5791805490818352602091838380820180978580528286209486915b81600384011061041f575061037c95549184828210610406575b8282106103eb575b8282106103ce575b50106103c0575b509050969594929396038261049d565b83519485948186019282875251809352850193925b8281106103a057505050500390f35b83516001600160401b031685528695509381019392810192600101610391565b60c01c81520184908961036c565b608084901c6001600160401b031685529093019260010184610365565b838d1c6001600160401b03168552909301926001018461035d565b6001600160401b03841685529093019260010184610355565b86546001600160401b038082168652818e1c81168b870152608082811c9091168e87015260c09190911c60608601526001909701968a9650899550909301929182019161033b565b9060008054831015610489576020818060189352208360021c019260031b1690565b634e487b7160e01b81526032600452602490fd5b601f909101601f19168101906001600160401b038211908210176104c057604052565b634e487b7160e01b600052604160045260246000fd5b6020808252825181830181905290939260005b82811061050b57505060409293506000838284010152601f8019910116010190565b8181018601518482016040015285016104e956fea264697066735822122081116095cd768a89b7aa271810672f6e230b0ff839e77603c77a922635cd705264736f6c634300081700333deb6b9a71843c517f2f549bc65007759a0f9708919062235ee749cefd91405f",
  "linkReferences": {},
  "deployedLinkReferences": {}
}